{
  "_format": "hh-sol-artifact-1",
  "contractName": "Stacking",
  "sourceName": "contracts/Stacking.sol",
  "abi": [
    {
      "inputs": [
        {
          "internalType": "address",
          "name": "_tokenAddress",
          "type": "address"
        }
      ],
      "stateMutability": "payable",
      "type": "constructor"
    },
    {
      "anonymous": false,
      "inputs": [
        {
          "indexed": true,
          "internalType": "address",
          "name": "user",
          "type": "address"
        },
        {
          "indexed": false,
          "internalType": "uint8",
          "name": "plan",
          "type": "uint8"
        },
        {
          "indexed": false,
          "internalType": "uint256",
          "name": "amount",
          "type": "uint256"
        }
      ],
      "name": "NewDeposit",
      "type": "event"
    },
    {
      "anonymous": false,
      "inputs": [
        {
          "indexed": false,
          "internalType": "address",
          "name": "user",
          "type": "address"
        }
      ],
      "name": "Newbie",
      "type": "event"
    },
    {
      "anonymous": false,
      "inputs": [
        {
          "indexed": true,
          "internalType": "address",
          "name": "previousOwner",
          "type": "address"
        },
        {
          "indexed": true,
          "internalType": "address",
          "name": "newOwner",
          "type": "address"
        }
      ],
      "name": "OwnershipTransferred",
      "type": "event"
    },
    {
      "anonymous": false,
      "inputs": [
        {
          "indexed": true,
          "internalType": "address",
          "name": "user",
          "type": "address"
        },
        {
          "indexed": false,
          "internalType": "uint256",
          "name": "amount",
          "type": "uint256"
        }
      ],
      "name": "Withdrawn",
      "type": "event"
    },
    {
      "inputs": [],
      "name": "MIN_AMOUNT",
      "outputs": [
        {
          "internalType": "uint256",
          "name": "",
          "type": "uint256"
        }
      ],
      "stateMutability": "view",
      "type": "function"
    },
    {
      "inputs": [],
      "name": "ONE_YEAR",
      "outputs": [
        {
          "internalType": "uint256",
          "name": "",
          "type": "uint256"
        }
      ],
      "stateMutability": "view",
      "type": "function"
    },
    {
      "inputs": [],
      "name": "PENALTY_PERCENT",
      "outputs": [
        {
          "internalType": "uint256",
          "name": "",
          "type": "uint256"
        }
      ],
      "stateMutability": "view",
      "type": "function"
    },
    {
      "inputs": [],
      "name": "PERCENT_DIVIDER",
      "outputs": [
        {
          "internalType": "uint256",
          "name": "",
          "type": "uint256"
        }
      ],
      "stateMutability": "view",
      "type": "function"
    },
    {
      "inputs": [],
      "name": "TIME_STEP",
      "outputs": [
        {
          "internalType": "uint256",
          "name": "",
          "type": "uint256"
        }
      ],
      "stateMutability": "view",
      "type": "function"
    },
    {
      "inputs": [],
      "name": "adminTokens",
      "outputs": [
        {
          "internalType": "uint256",
          "name": "",
          "type": "uint256"
        }
      ],
      "stateMutability": "view",
      "type": "function"
    },
    {
      "inputs": [
        {
          "internalType": "uint8",
          "name": "plan",
          "type": "uint8"
        },
        {
          "internalType": "uint256",
          "name": "amounts",
          "type": "uint256"
        }
      ],
      "name": "deposit",
      "outputs": [],
      "stateMutability": "nonpayable",
      "type": "function"
    },
    {
      "inputs": [],
      "name": "getContractBalance",
      "outputs": [
        {
          "internalType": "uint256",
          "name": "",
          "type": "uint256"
        }
      ],
      "stateMutability": "view",
      "type": "function"
    },
    {
      "inputs": [
        {
          "internalType": "uint8",
          "name": "plan",
          "type": "uint8"
        }
      ],
      "name": "getPlanInfo",
      "outputs": [
        {
          "internalType": "uint256",
          "name": "time",
          "type": "uint256"
        },
        {
          "internalType": "uint256",
          "name": "percent",
          "type": "uint256"
        }
      ],
      "stateMutability": "view",
      "type": "function"
    },
    {
      "inputs": [
        {
          "internalType": "address",
          "name": "userAddress",
          "type": "address"
        }
      ],
      "name": "getUserAmountOfDeposits",
      "outputs": [
        {
          "internalType": "uint256",
          "name": "",
          "type": "uint256"
        }
      ],
      "stateMutability": "view",
      "type": "function"
    },
    {
      "inputs": [
        {
          "internalType": "address",
          "name": "userAddress",
          "type": "address"
        },
        {
          "internalType": "uint256",
          "name": "depositId",
          "type": "uint256"
        }
      ],
      "name": "getUserDepositInfo",
      "outputs": [
        {
          "internalType": "uint8",
          "name": "plan",
          "type": "uint8"
        },
        {
          "internalType": "uint256",
          "name": "percent",
          "type": "uint256"
        },
        {
          "internalType": "uint256",
          "name": "amount",
          "type": "uint256"
        },
        {
          "internalType": "uint256",
          "name": "start",
          "type": "uint256"
        },
        {
          "internalType": "uint256",
          "name": "finish",
          "type": "uint256"
        },
        {
          "internalType": "bool",
          "name": "isTaken",
          "type": "bool"
        }
      ],
      "stateMutability": "view",
      "type": "function"
    },
    {
      "inputs": [
        {
          "internalType": "address",
          "name": "userAddress",
          "type": "address"
        },
        {
          "internalType": "uint256",
          "name": "depositId",
          "type": "uint256"
        }
      ],
      "name": "getUserNegativeDividends",
      "outputs": [
        {
          "internalType": "uint256",
          "name": "",
          "type": "uint256"
        }
      ],
      "stateMutability": "view",
      "type": "function"
    },
    {
      "inputs": [
        {
          "internalType": "address",
          "name": "userAddress",
          "type": "address"
        }
      ],
      "name": "getUserTotalDeposits",
      "outputs": [
        {
          "internalType": "uint256",
          "name": "amount",
          "type": "uint256"
        }
      ],
      "stateMutability": "view",
      "type": "function"
    },
    {
      "inputs": [],
      "name": "owner",
      "outputs": [
        {
          "internalType": "address",
          "name": "",
          "type": "address"
        }
      ],
      "stateMutability": "view",
      "type": "function"
    },
    {
      "inputs": [
        {
          "internalType": "uint256",
          "name": "",
          "type": "uint256"
        }
      ],
      "name": "plans",
      "outputs": [
        {
          "internalType": "uint256",
          "name": "time",
          "type": "uint256"
        },
        {
          "internalType": "uint256",
          "name": "percent",
          "type": "uint256"
        }
      ],
      "stateMutability": "view",
      "type": "function"
    },
    {
      "inputs": [],
      "name": "renounceOwnership",
      "outputs": [],
      "stateMutability": "nonpayable",
      "type": "function"
    },
    {
      "inputs": [],
      "name": "token",
      "outputs": [
        {
          "internalType": "contract IERC20",
          "name": "",
          "type": "address"
        }
      ],
      "stateMutability": "view",
      "type": "function"
    },
    {
      "inputs": [],
      "name": "totalStacked",
      "outputs": [
        {
          "internalType": "uint256",
          "name": "",
          "type": "uint256"
        }
      ],
      "stateMutability": "view",
      "type": "function"
    },
    {
      "inputs": [
        {
          "internalType": "address",
          "name": "newOwner",
          "type": "address"
        }
      ],
      "name": "transferOwnership",
      "outputs": [],
      "stateMutability": "nonpayable",
      "type": "function"
    },
    {
      "inputs": [
        {
          "internalType": "address",
          "name": "",
          "type": "address"
        }
      ],
      "name": "users",
      "outputs": [
        {
          "internalType": "uint256",
          "name": "seedLoss",
          "type": "uint256"
        },
        {
          "internalType": "uint256",
          "name": "withdrawn",
          "type": "uint256"
        }
      ],
      "stateMutability": "view",
      "type": "function"
    },
    {
      "inputs": [
        {
          "internalType": "uint256",
          "name": "",
          "type": "uint256"
        }
      ],
      "name": "usersDeposits",
      "outputs": [
        {
          "internalType": "uint256",
          "name": "",
          "type": "uint256"
        }
      ],
      "stateMutability": "view",
      "type": "function"
    },
    {
      "inputs": [
        {
          "internalType": "uint256",
          "name": "depositId",
          "type": "uint256"
        }
      ],
      "name": "withdraw",
      "outputs": [],
      "stateMutability": "nonpayable",
      "type": "function"
    },
    {
      "inputs": [
        {
          "internalType": "uint256",
          "name": "amounts",
          "type": "uint256"
        }
      ],
      "name": "withdrawTokens",
      "outputs": [],
      "stateMutability": "nonpayable",
      "type": "function"
    }
  ],
  "bytecode": "0x60806040526040516200237338038062002373833981810160405281019062000029919062000330565b620000496200003d620001fa60201b60201c565b6200020260201b60201c565b6001808190555080600460006101000a81548173ffffffffffffffffffffffffffffffffffffffff021916908373ffffffffffffffffffffffffffffffffffffffff16021790555060036040518060400160405280605a8152602001600b8152509080600181540180825580915050600190039060005260206000209060020201600090919091909150600082015181600001556020820151816001015550506003604051806040016040528060b481526020016016815250908060018154018082558091505060019003906000526020600020906002020160009091909190915060008201518160000155602082015181600101555050600360405180604001604052806101688152602001604281525090806001815401808255809150506001900390600052602060002090600202016000909190919091506000820151816000015560208201518160010155505060036040518060400160405280610708815260200160788152509080600181540180825580915050600190039060005260206000209060020201600090919091909150600082015181600001556020820151816001015550505062000362565b600033905090565b60008060009054906101000a900473ffffffffffffffffffffffffffffffffffffffff169050816000806101000a81548173ffffffffffffffffffffffffffffffffffffffff021916908373ffffffffffffffffffffffffffffffffffffffff1602179055508173ffffffffffffffffffffffffffffffffffffffff168173ffffffffffffffffffffffffffffffffffffffff167f8be0079c531659141344cd1fd0a4f28419497f9722a3daafe3b4186f6b6457e060405160405180910390a35050565b600080fd5b600073ffffffffffffffffffffffffffffffffffffffff82169050919050565b6000620002f882620002cb565b9050919050565b6200030a81620002eb565b81146200031657600080fd5b50565b6000815190506200032a81620002ff565b92915050565b600060208284031215620003495762000348620002c6565b5b6000620003598482850162000319565b91505092915050565b61200180620003726000396000f3fe608060405234801561001057600080fd5b506004361061014d5760003560e01c80638da5cb5b116100c3578063c0806b031161007c578063c0806b03146103b9578063ddbcb5fa146103ee578063f02bde541461040c578063f2fde38b1461042a578063f4d4c9d714610446578063fc0c546a146104625761014d565b80638da5cb5b146102ba5780638fa04016146102d8578063a87430ba146102f6578063a8aeb6c214610327578063aecaa63414610357578063b1620616146103885761014d565b806332bc298c1161011557806332bc298c146101e4578063468cd2db146102025780636f9fb98a14610232578063715018a6146102505780637e3abeea1461025a57806389f98fe21461028a5761014d565b806316d3bfbb1461015257806329eae70d1461017057806329fc7bd81461018e5780632e1a7d4d146101ac578063315a095d146101c8575b600080fd5b61015a610480565b6040516101679190611566565b60405180910390f35b610178610494565b6040516101859190611566565b60405180910390f35b61019661049a565b6040516101a39190611566565b60405180910390f35b6101c660048036038101906101c191906115b2565b6104a0565b005b6101e260048036038101906101dd91906115b2565b610824565b005b6101ec610930565b6040516101f99190611566565b60405180910390f35b61021c6004803603810190610217919061163d565b610937565b6040516102299190611566565b60405180910390f35b61023a610b30565b6040516102479190611566565b60405180910390f35b610258610bd3565b005b610274600480360381019061026f919061167d565b610be7565b6040516102819190611566565b60405180910390f35b6102a4600480360381019061029f91906115b2565b610ccf565b6040516102b19190611566565b60405180910390f35b6102c2610cf3565b6040516102cf91906116b9565b60405180910390f35b6102e0610d1c565b6040516102ed9190611566565b60405180910390f35b610310600480360381019061030b919061167d565b610d22565b60405161031e9291906116d4565b60405180910390f35b610341600480360381019061033c919061167d565b610d46565b60405161034e9190611566565b60405180910390f35b610371600480360381019061036c9190611736565b610d95565b60405161037f9291906116d4565b60405180910390f35b6103a2600480360381019061039d91906115b2565b610df3565b6040516103b09291906116d4565b60405180910390f35b6103d360048036038101906103ce919061163d565b610e27565b6040516103e59695949392919061178d565b60405180910390f35b6103f6610f6f565b6040516104039190611566565b60405180910390f35b610414610f7a565b6040516104219190611566565b60405180910390f35b610444600480360381019061043f919061167d565b610f80565b005b610460600480360381019061045b91906117ee565b611003565b005b61046a61132d565b604051610477919061188d565b60405180910390f35b6201518061016d61049191906118d7565b81565b60055481565b61271081565b6104a8611353565b60006104b43383610937565b90506000600260003373ffffffffffffffffffffffffffffffffffffffff1673ffffffffffffffffffffffffffffffffffffffff1681526020019081526020016000209050600081600001848154811061051157610510611919565b5b90600052602060002090600402019050600015158160030160009054906101000a900460ff16151514610579576040517f08c379a0000000000000000000000000000000000000000000000000000000008152600401610570906119a5565b60405180910390fd5b6000806105e16105ce6201518060038660000160009054906101000a900460ff1660ff16815481106105ae576105ad611919565b5b9060005260206000209060020201600001546113a290919063ffffffff16565b84600201546113b890919063ffffffff16565b9050428111156106665761062e61061b61271061060d611a0487600101546113a290919063ffffffff16565b6113ce90919063ffffffff16565b84600101546113e490919063ffffffff16565b915061065b61064a8385600101546113e490919063ffffffff16565b6006546113b890919063ffffffff16565b60068190555061069f565b61067d8584600101546113e490919063ffffffff16565b91506106968585600101546113b890919063ffffffff16565b84600101819055505b816106a8610b30565b10156106e9576040517f08c379a00000000000000000000000000000000000000000000000000000000081526004016106e090611a37565b60405180910390fd5b6107008285600201546113b890919063ffffffff16565b8460020181905550600460009054906101000a900473ffffffffffffffffffffffffffffffffffffffff1673ffffffffffffffffffffffffffffffffffffffff1663a9059cbb33846040518363ffffffff1660e01b8152600401610765929190611a57565b6020604051808303816000875af1158015610784573d6000803e3d6000fd5b505050506040513d601f19601f820116820180604052508101906107a89190611aac565b5060018360030160006101000a81548160ff0219169083151502179055503373ffffffffffffffffffffffffffffffffffffffff167f7084f5476618d8e60b11ef0d7d3f06914655adb8793e28ff7f018d4c76d505d58360405161080c9190611566565b60405180910390a250505050506108216113fa565b50565b61082c611403565b806006541015610871576040517f08c379a000000000000000000000000000000000000000000000000000000000815260040161086890611b4b565b60405180910390fd5b600460009054906101000a900473ffffffffffffffffffffffffffffffffffffffff1673ffffffffffffffffffffffffffffffffffffffff1663a9059cbb33836040518363ffffffff1660e01b81526004016108ce929190611a57565b6020604051808303816000875af11580156108ed573d6000803e3d6000fd5b505050506040513d601f19601f820116820180604052508101906109119190611aac565b50610927816006546113e490919063ffffffff16565b60068190555050565b6201518081565b600061094283610d46565b8210610983576040517f08c379a000000000000000000000000000000000000000000000000000000000815260040161097a90611bb7565b60405180910390fd5b6000600260008573ffffffffffffffffffffffffffffffffffffffff1673ffffffffffffffffffffffffffffffffffffffff168152602001908152602001600020905060008160000184815481106109de576109dd611919565b5b906000526020600020906004020190506000610a55610a426201518060038560000160009054906101000a900460ff1660ff1681548110610a2257610a21611919565b5b9060005260206000209060020201600001546113a290919063ffffffff16565b83600201546113b890919063ffffffff16565b90506000610abd612710610aaf60038660000160009054906101000a900460ff1660ff1681548110610a8a57610a89611919565b5b90600052602060002090600202016001015486600101546113a290919063ffffffff16565b6113ce90919063ffffffff16565b90506000824211610ace5742610ad0565b825b9050600084600201549050610b226201518061016d610aef91906118d7565b610b14610b0584866113e490919063ffffffff16565b866113a290919063ffffffff16565b6113ce90919063ffffffff16565b965050505050505092915050565b6000600460009054906101000a900473ffffffffffffffffffffffffffffffffffffffff1673ffffffffffffffffffffffffffffffffffffffff166370a08231306040518263ffffffff1660e01b8152600401610b8d91906116b9565b602060405180830381865afa158015610baa573d6000803e3d6000fd5b505050506040513d601f19601f82011682018060405250810190610bce9190611bec565b905090565b610bdb611403565b610be56000611481565b565b600080600090505b600260008473ffffffffffffffffffffffffffffffffffffffff1673ffffffffffffffffffffffffffffffffffffffff16815260200190815260200160002060000180549050811015610cc957610cb4600260008573ffffffffffffffffffffffffffffffffffffffff1673ffffffffffffffffffffffffffffffffffffffff1681526020019081526020016000206000018281548110610c9357610c92611919565b5b906000526020600020906004020160010154836113b890919063ffffffff16565b91508080610cc190611c19565b915050610bef565b50919050565b60078181548110610cdf57600080fd5b906000526020600020016000915090505481565b60008060009054906101000a900473ffffffffffffffffffffffffffffffffffffffff16905090565b611a0481565b60026020528060005260406000206000915090508060010154908060020154905082565b6000600260008373ffffffffffffffffffffffffffffffffffffffff1673ffffffffffffffffffffffffffffffffffffffff168152602001908152602001600020600001805490509050919050565b60008060038360ff1681548110610daf57610dae611919565b5b906000526020600020906002020160000154915060038360ff1681548110610dda57610dd9611919565b5b9060005260206000209060020201600101549050915091565b60038181548110610e0357600080fd5b90600052602060002090600202016000915090508060000154908060010154905082565b6000806000806000806000600260008a73ffffffffffffffffffffffffffffffffffffffff1673ffffffffffffffffffffffffffffffffffffffff16815260200190815260200160002090506000816000018981548110610e8b57610e8a611919565b5b906000526020600020906004020190508060000160009054906101000a900460ff16975060038860ff1681548110610ec657610ec5611919565b5b90600052602060002090600202016001015496508060010154955080600201549450610f4d610f3a6201518060038460000160009054906101000a900460ff1660ff1681548110610f1a57610f19611919565b5b9060005260206000209060020201600001546113a290919063ffffffff16565b82600201546113b890919063ffffffff16565b93508060030160009054906101000a900460ff16925050509295509295509295565b66038d7ea4c6800081565b60065481565b610f88611403565b600073ffffffffffffffffffffffffffffffffffffffff168173ffffffffffffffffffffffffffffffffffffffff1603610ff7576040517f08c379a0000000000000000000000000000000000000000000000000000000008152600401610fee90611cd3565b60405180910390fd5b61100081611481565b50565b61100b611353565b66038d7ea4c68000811015611055576040517f08c379a000000000000000000000000000000000000000000000000000000000815260040161104c90611d3f565b60405180910390fd5b6003805490508260ff161061109f576040517f08c379a000000000000000000000000000000000000000000000000000000000815260040161109690611dab565b60405180910390fd5b600460009054906101000a900473ffffffffffffffffffffffffffffffffffffffff1673ffffffffffffffffffffffffffffffffffffffff166323b872dd3330846040518463ffffffff1660e01b81526004016110fe93929190611dcb565b6020604051808303816000875af115801561111d573d6000803e3d6000fd5b505050506040513d601f19601f820116820180604052508101906111419190611aac565b506000600260003373ffffffffffffffffffffffffffffffffffffffff1673ffffffffffffffffffffffffffffffffffffffff168152602001908152602001600020905060008160000180549050036111cc577f9fd565cd14c3c391679eb0cad12a14dcf7534e9d3462bcb9b67a098a9bbbc24a336040516111c391906116b9565b60405180910390a15b600260003373ffffffffffffffffffffffffffffffffffffffff1673ffffffffffffffffffffffffffffffffffffffff16815260200190815260200160002060000160405180608001604052808560ff16815260200184815260200142815260200160001515815250908060018154018082558091505060019003906000526020600020906004020160009091909190915060008201518160000160006101000a81548160ff021916908360ff160217905550602082015181600101556040820151816002015560608201518160030160006101000a81548160ff02191690831515021790555050506112ca826005546113b890919063ffffffff16565b6005819055503373ffffffffffffffffffffffffffffffffffffffff167f3a89eb89956dcf6537585a2372d4e629e18622cce06c2b4fee6301ae0840e2418484604051611318929190611e02565b60405180910390a2506113296113fa565b5050565b600460009054906101000a900473ffffffffffffffffffffffffffffffffffffffff1681565b600260015403611398576040517f08c379a000000000000000000000000000000000000000000000000000000000815260040161138f90611e77565b60405180910390fd5b6002600181905550565b600081836113b091906118d7565b905092915050565b600081836113c69190611e97565b905092915050565b600081836113dc9190611efa565b905092915050565b600081836113f29190611f2b565b905092915050565b60018081905550565b61140b611545565b73ffffffffffffffffffffffffffffffffffffffff16611429610cf3565b73ffffffffffffffffffffffffffffffffffffffff161461147f576040517f08c379a000000000000000000000000000000000000000000000000000000000815260040161147690611fab565b60405180910390fd5b565b60008060009054906101000a900473ffffffffffffffffffffffffffffffffffffffff169050816000806101000a81548173ffffffffffffffffffffffffffffffffffffffff021916908373ffffffffffffffffffffffffffffffffffffffff1602179055508173ffffffffffffffffffffffffffffffffffffffff168173ffffffffffffffffffffffffffffffffffffffff167f8be0079c531659141344cd1fd0a4f28419497f9722a3daafe3b4186f6b6457e060405160405180910390a35050565b600033905090565b6000819050919050565b6115608161154d565b82525050565b600060208201905061157b6000830184611557565b92915050565b600080fd5b61158f8161154d565b811461159a57600080fd5b50565b6000813590506115ac81611586565b92915050565b6000602082840312156115c8576115c7611581565b5b60006115d68482850161159d565b91505092915050565b600073ffffffffffffffffffffffffffffffffffffffff82169050919050565b600061160a826115df565b9050919050565b61161a816115ff565b811461162557600080fd5b50565b60008135905061163781611611565b92915050565b6000806040838503121561165457611653611581565b5b600061166285828601611628565b92505060206116738582860161159d565b9150509250929050565b60006020828403121561169357611692611581565b5b60006116a184828501611628565b91505092915050565b6116b3816115ff565b82525050565b60006020820190506116ce60008301846116aa565b92915050565b60006040820190506116e96000830185611557565b6116f66020830184611557565b9392505050565b600060ff82169050919050565b611713816116fd565b811461171e57600080fd5b50565b6000813590506117308161170a565b92915050565b60006020828403121561174c5761174b611581565b5b600061175a84828501611721565b91505092915050565b61176c816116fd565b82525050565b60008115159050919050565b61178781611772565b82525050565b600060c0820190506117a26000830189611763565b6117af6020830188611557565b6117bc6040830187611557565b6117c96060830186611557565b6117d66080830185611557565b6117e360a083018461177e565b979650505050505050565b6000806040838503121561180557611804611581565b5b600061181385828601611721565b92505060206118248582860161159d565b9150509250929050565b6000819050919050565b600061185361184e611849846115df565b61182e565b6115df565b9050919050565b600061186582611838565b9050919050565b60006118778261185a565b9050919050565b6118878161186c565b82525050565b60006020820190506118a2600083018461187e565b92915050565b7f4e487b7100000000000000000000000000000000000000000000000000000000600052601160045260246000fd5b60006118e28261154d565b91506118ed8361154d565b92508282026118fb8161154d565b91508282048414831517611912576119116118a8565b5b5092915050565b7f4e487b7100000000000000000000000000000000000000000000000000000000600052603260045260246000fd5b600082825260208201905092915050565b7f6465706f73697420697320616c72656164792074616b656e0000000000000000600082015250565b600061198f601883611948565b915061199a82611959565b602082019050919050565b600060208201905081810360008301526119be81611982565b9050919050565b7f546f6b656e7320617265206e6f7420617661696c61626c652c20706c6561736560008201527f20636f6e746163742061646d696e000000000000000000000000000000000000602082015250565b6000611a21602e83611948565b9150611a2c826119c5565b604082019050919050565b60006020820190508181036000830152611a5081611a14565b9050919050565b6000604082019050611a6c60008301856116aa565b611a796020830184611557565b9392505050565b611a8981611772565b8114611a9457600080fd5b50565b600081519050611aa681611a80565b92915050565b600060208284031215611ac257611ac1611581565b5b6000611ad084828501611a97565b91505092915050565b7f41646d696e2063616e207769746864726177206c657373207468616e2061646d60008201527f696e546f6b656e7320616d6f756e740000000000000000000000000000000000602082015250565b6000611b35602f83611948565b9150611b4082611ad9565b604082019050919050565b60006020820190508181036000830152611b6481611b28565b9050919050565b7f496e76616c6964206465706f7369744964000000000000000000000000000000600082015250565b6000611ba1601183611948565b9150611bac82611b6b565b602082019050919050565b60006020820190508181036000830152611bd081611b94565b9050919050565b600081519050611be681611586565b92915050565b600060208284031215611c0257611c01611581565b5b6000611c1084828501611bd7565b91505092915050565b6000611c248261154d565b91507fffffffffffffffffffffffffffffffffffffffffffffffffffffffffffffffff8203611c5657611c556118a8565b5b600182019050919050565b7f4f776e61626c653a206e6577206f776e657220697320746865207a65726f206160008201527f6464726573730000000000000000000000000000000000000000000000000000602082015250565b6000611cbd602683611948565b9150611cc882611c61565b604082019050919050565b60006020820190508181036000830152611cec81611cb0565b9050919050565b7f6d696e206c696d697420302e3030312069732072657175697265640000000000600082015250565b6000611d29601b83611948565b9150611d3482611cf3565b602082019050919050565b60006020820190508181036000830152611d5881611d1c565b9050919050565b7f496e76616c696420706c616e0000000000000000000000000000000000000000600082015250565b6000611d95600c83611948565b9150611da082611d5f565b602082019050919050565b60006020820190508181036000830152611dc481611d88565b9050919050565b6000606082019050611de060008301866116aa565b611ded60208301856116aa565b611dfa6040830184611557565b949350505050565b6000604082019050611e176000830185611763565b611e246020830184611557565b9392505050565b7f5265656e7472616e637947756172643a207265656e7472616e742063616c6c00600082015250565b6000611e61601f83611948565b9150611e6c82611e2b565b602082019050919050565b60006020820190508181036000830152611e9081611e54565b9050919050565b6000611ea28261154d565b9150611ead8361154d565b9250828201905080821115611ec557611ec46118a8565b5b92915050565b7f4e487b7100000000000000000000000000000000000000000000000000000000600052601260045260246000fd5b6000611f058261154d565b9150611f108361154d565b925082611f2057611f1f611ecb565b5b828204905092915050565b6000611f368261154d565b9150611f418361154d565b9250828203905081811115611f5957611f586118a8565b5b92915050565b7f4f776e61626c653a2063616c6c6572206973206e6f7420746865206f776e6572600082015250565b6000611f95602083611948565b9150611fa082611f5f565b602082019050919050565b60006020820190508181036000830152611fc481611f88565b905091905056fea26469706673582212203352655ee6e43d7e55888f3233f2b999382d5a0127275afa8f37158b1027acc464736f6c63430008120033",
  "linkReferences": {},
  "deployedLinkReferences": {}
}